:020000040800F2
:10000000600600206D0100087501000877010008F6
:10001000790100087B0100087D0100080000000054
:100020000000000000000000000000007F01000848
:10003000810100080000000083010008850100081C
:100040008701000887010008870100088701000870
:100050008701000887010008870100088701000860
:100060008701000887010008870100088701000850
:100070008701000887010008870100088701000840
:100080008701000887010008870100088701000830
:100090008701000887010008870100088701000820
:1000A0008701000887010008870100088701000810
:1000B0008701000887010008000000008701000890
:1000C0008701000800000000000000008701000810
:1000D0000000000087010008870100080000000000
:1000E00087010008870100088701000800F002F876
:1000F00000F02CF80AA090E8000C82448344AAF196
:100100000107DA4501D100F021F8AFF2090EBAE893
:100110000F0013F0010F18BFFB1A43F0010318473B
:10012000840400009404000000230024002500261D
:10013000103A28BF78C1FBD8520728BF30C148BF4A
:100140000B6070471FB51FBD10B510BD00F031F832
:100150001146FFF7F7FF00F04BF900F04FF803B43A
:10016000FFF7F2FF03BC00F057F800000948804792
:1001700009480047FEE7FEE7FEE7FEE7FEE7FEE789
:10018000FEE7FEE7FEE7FEE704480549054A064BA1
:100190007047000011030008ED0000086000002017
:1001A0006006002060020020600200207047704757
:1001B0007047754600F02CF8AE4605006946534678
:1001C00020F00700854618B020B5FFF7DDFFBDE839
:1001D00020404FF000064FF000074FF000084FF0AE
:1001E000000B21F00701AC46ACE8C009ACE8C0093F
:1001F000ACE8C009ACE8C0098D46704710B50446AC
:10020000AFF300802046BDE81040FFF7A8BF000014
:10021000004870470000002001491820ABBEFEE7EF
:1002200026000200704710B500F002F810BD000073
:100230000CB50020019000903348006840F48030F5
:100240003149086000BF3048006800F40030009079
:100250000198401C0190009818B90198B0F5A06F62
:10026000F1D12948006800F4003010B1012000905D
:1002700001E0002000900098012843D12348006845
:1002800040F01000214908600846006820F0030093
:1002900008600846006840F0020008601A4840689C
:1002A000194948600846406848600846406840F47C
:1002B000806048600846406820F47C10486008462A
:1002C000406840F4E81048600846006840F08070DC
:1002D000086000BF0C48006800F000700028F9D0EA
:1002E0000948406820F00300074948600846406814
:1002F00040F00200486000BF0348406800F00C0076
:100300000828F9D10CBD0000001002400020024076
:1003100010B51348006840F0010011490860084614
:100320004068104908400E494860084600680E4978
:1003300008400B4908600846006820F480200860E7
:100340000846406820F4FE0048604FF41F008860B3
:10035000FFF769FF4FF000600449086010BD00001E
:10036000001002400000FFF8FFFFF6FE08ED00E07D
:1003700001B500BF0098411E00910028FAD108BDC8
:1003800000B54FF480400749086140F6B830FFF7E8
:10039000EFFF4FF480400349486140F6B830FFF763
:1003A000E7FF00BD0010014030B505460C4625B101
:1003B0004FF400400649086103E04FF4004004494F
:1003C0004861201100F006F8204600F003F830BD27
:1003D0000010014000B502460F200449086002F0F9
:1003E0000F00091F0860FFF7CBFF00BD140C014090
:1003F0006648806940F00400644988610846806965
:1004000040F0080088610846806940F0100088616B
:100410000846806940F4007088615D48006820F0FB
:100420000F005B4908605B4800686FF30F00594993
:1004300008600846006842F22221084355490860D6
:100440005548406820F07F4053494860084640685E
:1004500040F0085048605148006840F007004F499C
:10046000086000204D49243108604C480838006875
:1004700040F0010049490839086042F21070FFF766
:1004800077FF46480838006840F0080043490839BB
:10049000086000BF41480838006800F008000028E4
:1004A000F8D144F62060FFF763FF0320FFF792FFC7
:1004B00041F28830FFF75CFF0320FFF78BFF41F22A
:1004C0008830FFF755FF0320FFF784FF0220FFF776
:1004D00081FF28210020FFF767FF0C210020FFF794
:1004E00063FF06210020FFF75FFF01210020FFF7D7
:1004F0005BFF4AE029480838006840F4800027493B
:100500000839086000BF25481038006800F0020074
:100510000028F8D021483C3004684FF4A5706043AF
:1005200040F6FF7190FBF1F4642094FBF0F50A2093
:1005300094FBF0F00A2190FBF1F201FB12060A2075
:1005400094FBF0F100FB114780210020FFF72CFF06
:1005500005F13000C1B20120FFF726FF06F130009F
:10056000C1B20120FFF720FF2E210120FFF71CFF61
:1005700007F13000C1B20120FFF716FF562101201C
:10058000FFF712FF0648FFF7F3FEB3E70010024043
:1005900000080140000C01400010014010240140FF
:1005A00020A10700B405000800000020600600003C
:0405B0002801000816
:040000050800016D81
:00000001FF
