:020000040800F2
:1000000060060020750100087D0100087F010008DE
:10001000810100088301000885010008000000003C
:100020000000000000000000000000008701000840
:1000300089010008000000008B0100088D01000804
:100040008F0100088F0100088F0100088F01000850
:100050008F0100088F0100088F0100088F01000840
:100060008F0100088F0100088F0100088F01000830
:100070008F0100088F0100088F0100088F01000820
:100080008F0100088F0100088F0100088F01000810
:100090008F0100088F0100088F0100088F01000800
:1000A0008F0100088F0100088F0100088F010008F0
:1000B0008F0100088F010008000000008F01000878
:1000C0008F01000800000000000000008F01000800
:1000D000000000008F0100088F01000800000000F0
:1000E0008F0100088F0100088F01000800F002F85E
:1000F00000F031F80AA090E8000C82448344AAF191
:100100000107DA4501D100F026F8AFF2090EBAE88E
:100110000F0013F0010F18BFFB1A43F0010318473B
:100120006006000070060000002300240025002661
:10013000103A28BF78C1FBD8520728BF30C148BF4A
:100140000B607047642900F07D80002070471FB568
:100150001FBD10B510BD00F02AF91146FFF7F7FFDB
:1001600000F0C4FA00F048F903B4FFF7F2FF03BC53
:1001700000F050F90948804709480047FEE7FEE7CC
:10018000FEE7FEE7FEE7FEE7FEE7FEE7FEE7FEE747
:1001900004480549054A064B70470000E905000878
:1001A000ED000008600000206006002060020020D2
:1001B000600200200FB41CB5074B06AA7B446946B9
:1001C0000090059800F0DBF80020694600F0EAF89E
:1001D0001CBC5DF814FB0000E50100002DE9F041B6
:1001E0000E460446002020622046E168884730B36E
:1001F000252805D0D4E901219047206A401CF2E768
:10020000E168204600278847050018D0A5F1410085
:10021000192802D820354FF4006732462946204677
:100220002760FFF78FFF40B1012804D0F61D26F0AC
:1002300007060836D8E7361DD6E72846DAE7206AEB
:10024000BDE8F0812DE9F0410646002410687529CB
:10025000314616A510D0AFF30080002802DA4042E4
:1002600013A507E031688A0701D512A502E0490706
:1002700004D511A5012401E0AFF3008000210A227A
:1002800006F1240709E0B0FBF2FCB0FBF2F302FB3D
:100290001C00303078541846491C0028F3D12346FE
:1002A0002A463046BDE8F04100F00BB800000000DF
:1002B0002D0000002B000000200000007047704758
:1002C00070472DE9F0470D4699469246044600F1E5
:1002D00024080168880604D5E06921F01001216036
:1002E00000E00120A84201DD471B00E00027A169D2
:1002F0007A1902EB0900081AA0612078C00602D41E
:100300002046AFF30080002608E0D4E901211AF866
:1003100006009047206A401C761C20624E45F4DBA4
:100320002078C0060AD52046AFF3008006E0D4E965
:10033000012130209047206A401C2062381EA7F11E
:100340000107F4DC07E0D4E9012118F80500904723
:10035000206A401C2062281EA5F10105F3DC20461E
:10036000AFF300802078000602D50220BDE8F087B8
:100370000120FBE701694A1C02610878704700B55B
:100380008FB0CDE901310021059105497944CDE9CE
:10039000031011466846FFF721FF0FB000BD0000B3
:1003A000E5FFFFFF0A6802F8010B0A607047754617
:1003B00000F02CF8AE4605006946534620F00700D1
:1003C000854618B020B5FFF7E3FEBDE820404FF0AA
:1003D00000064FF000074FF000084FF0000B21F02F
:1003E0000701AC46ACE8C009ACE8C009ACE8C009FC
:1003F000ACE8C0098D46704710B50446AFF30080E5
:100400002046BDE81040FFF7AFBE0000004870472F
:100410000000002001491820ABBEFEE726000200C4
:10042000704700001649896941F40171144A9161CD
:100430001449096821F47001124A11600521124A19
:10044000116011492C39096841F001010E4A2C3A1A
:100450001160002000E0401CB0F57A7FFBDB0A4908
:100460002C39096841F00401074A2C3A116000BF99
:1004700005492C39096801F004010029F8D17047B9
:10048000001002400008014034240140094800687F
:1004900040F480000749086000BF0648083800683B
:1004A00000F002000028F8D002484430006880B212
:1004B00070470000082401400D48806940F00400A6
:1004C0000B4988610B4800680B49084009490860DE
:1004D00008460068094908430649086005480C3089
:1004E000006840F01E0003490C31086070470000AE
:1004F00000100240000801400F00F0FF8088080053
:1005000010B500F001F810BD0CB50020019000906E
:100510003348006840F480303149086000BF3048FB
:10052000006800F4003000900198401C0190009891
:1005300018B90198B0F5A06FF1D12948006800F40E
:10054000003010B10120009001E0002000900098E0
:10055000012843D12348006840F010002149086079
:100560000846006820F0030008600846006840F074
:10057000020008601A484068194948600846406807
:1005800048600846406840F480604860084640681B
:1005900020F47C1048600846406840F4E810486049
:1005A0000846006840F08070086000BF0C48006892
:1005B00000F000700028F9D00948406820F00300DE
:1005C000074948600846406840F00200486000BFA4
:1005D0000348406800F00C000828F9D10CBD000069
:1005E000001002400020024010B51348006840F09F
:1005F00001001149086008464068104908400E494A
:100600004860084600680E4908400B4908600846E3
:10061000006820F4802008600846406820F4FE004E
:1006200048604FF41F008860FFF76AFF4FF00060DA
:100630000449086010BD0000001002400000FFF8EF
:10064000FFFFF6FE08ED00E01248806944F2040165
:100650000843104988611048006820F0F0000E49F6
:1006600008600846006840F0B0000860084600686E
:1006700020F4706008600846006840F480600860FC
:1006800041F64C500549088042F20C00091D0880D3
:100690007047000000100240040801400838014083
:1006A00000BF0549098801F080010029F9D00249FD
:1006B000091D0880704700000038014000B502465F
:1006C00003E012F8010BFFF7EBFF10780028F8D1D8
:1006D00000BD002106E0002200E0521CB2F5FA5FE6
:1006E000FBDB491C8142F6DB7047000088B0FFF756
:1006F000E3FEFFF797FEFFF7A7FF37E01C4800680F
:10070000C0F340051A480068C0F380061848006826
:10071000C0F3C00716480068C0F30018FFF7B6FE24
:1007200004466420604340F6FF7190FBF1F94FF0FE
:10073000000A15B94FF0010A0CE016B94FF0020A91
:1007400008E017B94FF0030A04E0B8F1000F01D137
:100750004FF0040A4B46524606A16846FFF72AFDB1
:100760006846FFF7ABFFC820FFF7B3FFC6E70000FE
:1007700008080140442564204625640A0000000062
:100780009007000800000020600600002801000813
:040000050800017579
:00000001FF
